{
    "_format": "hh-sol-artifact-1",
    "contractName": "DStorage",
    "sourceName": "contracts/Storage.sol",
    "abi": [
        {
            "inputs": [],
            "stateMutability": "nonpayable",
            "type": "constructor"
        },
        {
            "inputs": [
                {
                    "internalType": "uint256",
                    "name": "",
                    "type": "uint256"
                }
            ],
            "name": "aFile",
            "outputs": [
                {
                    "internalType": "uint256",
                    "name": "fileId",
                    "type": "uint256"
                },
                {
                    "internalType": "string",
                    "name": "fileName",
                    "type": "string"
                },
                {
                    "internalType": "string",
                    "name": "filePath",
                    "type": "string"
                },
                {
                    "internalType": "string",
                    "name": "fileType",
                    "type": "string"
                },
                {
                    "internalType": "address payable",
                    "name": "saver",
                    "type": "address"
                }
            ],
            "stateMutability": "view",
            "type": "function"
        },
        {
            "inputs": [],
            "name": "displayFile",
            "outputs": [
                {
                    "components": [
                        {
                            "internalType": "uint256",
                            "name": "fileId",
                            "type": "uint256"
                        },
                        {
                            "internalType": "string",
                            "name": "fileName",
                            "type": "string"
                        },
                        {
                            "internalType": "string",
                            "name": "filePath",
                            "type": "string"
                        },
                        {
                            "internalType": "string",
                            "name": "fileType",
                            "type": "string"
                        },
                        {
                            "internalType": "address payable",
                            "name": "saver",
                            "type": "address"
                        }
                    ],
                    "internalType": "struct DStorage.FileInfo[]",
                    "name": "",
                    "type": "tuple[]"
                }
            ],
            "stateMutability": "view",
            "type": "function"
        },
        {
            "inputs": [
                {
                    "internalType": "uint256",
                    "name": "",
                    "type": "uint256"
                }
            ],
            "name": "files",
            "outputs": [
                {
                    "internalType": "uint256",
                    "name": "fileId",
                    "type": "uint256"
                },
                {
                    "internalType": "string",
                    "name": "fileName",
                    "type": "string"
                },
                {
                    "internalType": "string",
                    "name": "filePath",
                    "type": "string"
                },
                {
                    "internalType": "string",
                    "name": "fileType",
                    "type": "string"
                },
                {
                    "internalType": "address payable",
                    "name": "saver",
                    "type": "address"
                }
            ],
            "stateMutability": "view",
            "type": "function"
        },
        {
            "inputs": [],
            "name": "id",
            "outputs": [
                {
                    "internalType": "uint256",
                    "name": "",
                    "type": "uint256"
                }
            ],
            "stateMutability": "view",
            "type": "function"
        },
        {
            "inputs": [],
            "name": "owner",
            "outputs": [
                {
                    "internalType": "address payable",
                    "name": "",
                    "type": "address"
                }
            ],
            "stateMutability": "view",
            "type": "function"
        },
        {
            "inputs": [
                {
                    "internalType": "uint256",
                    "name": "",
                    "type": "uint256"
                }
            ],
            "name": "paidUser",
            "outputs": [
                {
                    "internalType": "address",
                    "name": "",
                    "type": "address"
                }
            ],
            "stateMutability": "view",
            "type": "function"
        },
        {
            "inputs": [],
            "name": "payment",
            "outputs": [],
            "stateMutability": "payable",
            "type": "function"
        },
        {
            "inputs": [
                {
                    "internalType": "string",
                    "name": "_fileName",
                    "type": "string"
                },
                {
                    "internalType": "string",
                    "name": "_filePath",
                    "type": "string"
                },
                {
                    "internalType": "string",
                    "name": "_fileType",
                    "type": "string"
                }
            ],
            "name": "uploadFile",
            "outputs": [],
            "stateMutability": "nonpayable",
            "type": "function"
        },
        {
            "stateMutability": "payable",
            "type": "receive"
        }
    ],
    "bytecode": "0x608060405234801561001057600080fd5b50336000806101000a81548173ffffffffffffffffffffffffffffffffffffffff021916908373ffffffffffffffffffffffffffffffffffffffff160217905550611819806100606000396000f3fe60806040526004361061007f5760003560e01c8063af640d0f1161004e578063af640d0f14610114578063c454b38c1461013f578063f4c714b41461017c578063f81e0663146101bd57610086565b806342f6487a1461008b57806343b92bc0146100955780638da5cb5b146100c057806392bb481a146100eb57610086565b3661008657005b600080fd5b6100936101fe565b005b3480156100a157600080fd5b506100aa6103c9565b6040516100b79190610f19565b60405180910390f35b3480156100cc57600080fd5b506100d561063e565b6040516100e29190610f4a565b60405180910390f35b3480156100f757600080fd5b50610112600480360381019061010d91906110ae565b610662565b005b34801561012057600080fd5b50610129610873565b6040516101369190611164565b60405180910390f35b34801561014b57600080fd5b50610166600480360381019061016191906111ab565b610879565b60405161017391906111f9565b60405180910390f35b34801561018857600080fd5b506101a3600480360381019061019e91906111ab565b6108b8565b6040516101b495949392919061125e565b60405180910390f35b3480156101c957600080fd5b506101e460048036038101906101df91906111ab565b610ab6565b6040516101f595949392919061125e565b60405180910390f35b60008054906101000a900473ffffffffffffffffffffffffffffffffffffffff1673ffffffffffffffffffffffffffffffffffffffff163373ffffffffffffffffffffffffffffffffffffffff160361028c576040517f08c379a000000000000000000000000000000000000000000000000000000000815260040161028390611312565b60405180910390fd5b60008060008054906101000a900473ffffffffffffffffffffffffffffffffffffffff1673ffffffffffffffffffffffffffffffffffffffff16670429d069189e00006040516102db90611363565b60006040518083038185875af1925050503d8060008114610318576040519150601f19603f3d011682016040523d82523d6000602084013e61031d565b606091505b509150915081610362576040517f08c379a0000000000000000000000000000000000000000000000000000000008152600401610359906113c4565b60405180910390fd5b6002339080600181540180825580915050600190039060005260206000200160009091909190916101000a81548173ffffffffffffffffffffffffffffffffffffffff021916908373ffffffffffffffffffffffffffffffffffffffff1602179055505050565b60606004805480602002602001604051908101604052809291908181526020016000905b8282101561063557838290600052602060002090600502016040518060a00160405290816000820154815260200160018201805461042a90611413565b80601f016020809104026020016040519081016040528092919081815260200182805461045690611413565b80156104a35780601f10610478576101008083540402835291602001916104a3565b820191906000526020600020905b81548152906001019060200180831161048657829003601f168201915b505050505081526020016002820180546104bc90611413565b80601f01602080910402602001604051908101604052809291908181526020018280546104e890611413565b80156105355780601f1061050a57610100808354040283529160200191610535565b820191906000526020600020905b81548152906001019060200180831161051857829003601f168201915b5050505050815260200160038201805461054e90611413565b80601f016020809104026020016040519081016040528092919081815260200182805461057a90611413565b80156105c75780601f1061059c576101008083540402835291602001916105c7565b820191906000526020600020905b8154815290600101906020018083116105aa57829003601f168201915b505050505081526020016004820160009054906101000a900473ffffffffffffffffffffffffffffffffffffffff1673ffffffffffffffffffffffffffffffffffffffff1673ffffffffffffffffffffffffffffffffffffffff1681525050815260200190600101906103ed565b50505050905090565b60008054906101000a900473ffffffffffffffffffffffffffffffffffffffff1681565b61066a610ca4565b6001600081548092919061067d90611473565b9190505550600154816000018181525050838160200181905250818160600181905250826040516020016106b19190611543565b604051602081830303815290604052816040018190525033816080019073ffffffffffffffffffffffffffffffffffffffff16908173ffffffffffffffffffffffffffffffffffffffff1681525050806003600060015481526020019081526020016000206000820151816000015560208201518160010190816107359190611711565b50604082015181600201908161074b9190611711565b5060608201518160030190816107619190611711565b5060808201518160040160006101000a81548173ffffffffffffffffffffffffffffffffffffffff021916908373ffffffffffffffffffffffffffffffffffffffff16021790555090505060048190806001815401808255809150506001900390600052602060002090600502016000909190919091506000820151816000015560208201518160010190816107f79190611711565b50604082015181600201908161080d9190611711565b5060608201518160030190816108239190611711565b5060808201518160040160006101000a81548173ffffffffffffffffffffffffffffffffffffffff021916908373ffffffffffffffffffffffffffffffffffffffff160217905550505050505050565b60015481565b6002818154811061088957600080fd5b906000526020600020016000915054906101000a900473ffffffffffffffffffffffffffffffffffffffff1681565b600481815481106108c857600080fd5b90600052602060002090600502016000915090508060000154908060010180546108f190611413565b80601f016020809104026020016040519081016040528092919081815260200182805461091d90611413565b801561096a5780601f1061093f5761010080835404028352916020019161096a565b820191906000526020600020905b81548152906001019060200180831161094d57829003601f168201915b50505050509080600201805461097f90611413565b80601f01602080910402602001604051908101604052809291908181526020018280546109ab90611413565b80156109f85780601f106109cd576101008083540402835291602001916109f8565b820191906000526020600020905b8154815290600101906020018083116109db57829003601f168201915b505050505090806003018054610a0d90611413565b80601f0160208091040260200160405190810160405280929190818152602001828054610a3990611413565b8015610a865780601f10610a5b57610100808354040283529160200191610a86565b820191906000526020600020905b815481529060010190602001808311610a6957829003601f168201915b5050505050908060040160009054906101000a900473ffffffffffffffffffffffffffffffffffffffff16905085565b6003602052806000526040600020600091509050806000015490806001018054610adf90611413565b80601f0160208091040260200160405190810160405280929190818152602001828054610b0b90611413565b8015610b585780601f10610b2d57610100808354040283529160200191610b58565b820191906000526020600020905b815481529060010190602001808311610b3b57829003601f168201915b505050505090806002018054610b6d90611413565b80601f0160208091040260200160405190810160405280929190818152602001828054610b9990611413565b8015610be65780601f10610bbb57610100808354040283529160200191610be6565b820191906000526020600020905b815481529060010190602001808311610bc957829003601f168201915b505050505090806003018054610bfb90611413565b80601f0160208091040260200160405190810160405280929190818152602001828054610c2790611413565b8015610c745780601f10610c4957610100808354040283529160200191610c74565b820191906000526020600020905b815481529060010190602001808311610c5757829003601f168201915b5050505050908060040160009054906101000a900473ffffffffffffffffffffffffffffffffffffffff16905085565b6040518060a0016040528060008152602001606081526020016060815260200160608152602001600073ffffffffffffffffffffffffffffffffffffffff1681525090565b600081519050919050565b600082825260208201905092915050565b6000819050602082019050919050565b6000819050919050565b610d2881610d15565b82525050565b600081519050919050565b600082825260208201905092915050565b60005b83811015610d68578082015181840152602081019050610d4d565b60008484015250505050565b6000601f19601f8301169050919050565b6000610d9082610d2e565b610d9a8185610d39565b9350610daa818560208601610d4a565b610db381610d74565b840191505092915050565b600073ffffffffffffffffffffffffffffffffffffffff82169050919050565b6000610de982610dbe565b9050919050565b610df981610dde565b82525050565b600060a083016000830151610e176000860182610d1f565b5060208301518482036020860152610e2f8282610d85565b91505060408301518482036040860152610e498282610d85565b91505060608301518482036060860152610e638282610d85565b9150506080830151610e786080860182610df0565b508091505092915050565b6000610e8f8383610dff565b905092915050565b6000602082019050919050565b6000610eaf82610ce9565b610eb98185610cf4565b935083602082028501610ecb85610d05565b8060005b85811015610f075784840389528151610ee88582610e83565b9450610ef383610e97565b925060208a01995050600181019050610ecf565b50829750879550505050505092915050565b60006020820190508181036000830152610f338184610ea4565b905092915050565b610f4481610dde565b82525050565b6000602082019050610f5f6000830184610f3b565b92915050565b6000604051905090565b600080fd5b600080fd5b600080fd5b600080fd5b7f4e487b7100000000000000000000000000000000000000000000000000000000600052604160045260246000fd5b610fbb82610d74565b810181811067ffffffffffffffff82111715610fda57610fd9610f83565b5b80604052505050565b6000610fed610f65565b9050610ff98282610fb2565b919050565b600067ffffffffffffffff82111561101957611018610f83565b5b61102282610d74565b9050602081019050919050565b82818337600083830152505050565b600061105161104c84610ffe565b610fe3565b90508281526020810184848401111561106d5761106c610f7e565b5b61107884828561102f565b509392505050565b600082601f83011261109557611094610f79565b5b81356110a584826020860161103e565b91505092915050565b6000806000606084860312156110c7576110c6610f6f565b5b600084013567ffffffffffffffff8111156110e5576110e4610f74565b5b6110f186828701611080565b935050602084013567ffffffffffffffff81111561111257611111610f74565b5b61111e86828701611080565b925050604084013567ffffffffffffffff81111561113f5761113e610f74565b5b61114b86828701611080565b9150509250925092565b61115e81610d15565b82525050565b60006020820190506111796000830184611155565b92915050565b61118881610d15565b811461119357600080fd5b50565b6000813590506111a58161117f565b92915050565b6000602082840312156111c1576111c0610f6f565b5b60006111cf84828501611196565b91505092915050565b60006111e382610dbe565b9050919050565b6111f3816111d8565b82525050565b600060208201905061120e60008301846111ea565b92915050565b600082825260208201905092915050565b600061123082610d2e565b61123a8185611214565b935061124a818560208601610d4a565b61125381610d74565b840191505092915050565b600060a0820190506112736000830188611155565b81810360208301526112858187611225565b905081810360408301526112998186611225565b905081810360608301526112ad8185611225565b90506112bc6080830184610f3b565b9695505050505050565b7f596f752063616e2774207472616e7366657220746f20796f757273656c660000600082015250565b60006112fc601e83611214565b9150611307826112c6565b602082019050919050565b6000602082019050818103600083015261132b816112ef565b9050919050565b600081905092915050565b50565b600061134d600083611332565b91506113588261133d565b600082019050919050565b600061136e82611340565b9150819050919050565b7f4661696c656420746f2073656e64206d61746963000000000000000000000000600082015250565b60006113ae601483611214565b91506113b982611378565b602082019050919050565b600060208201905081810360008301526113dd816113a1565b9050919050565b7f4e487b7100000000000000000000000000000000000000000000000000000000600052602260045260246000fd5b6000600282049050600182168061142b57607f821691505b60208210810361143e5761143d6113e4565b5b50919050565b7f4e487b7100000000000000000000000000000000000000000000000000000000600052601160045260246000fd5b600061147e82610d15565b91507fffffffffffffffffffffffffffffffffffffffffffffffffffffffffffffffff82036114b0576114af611444565b5b600182019050919050565b600081905092915050565b7f68747470733a2f2f697066732e696e667572612e696f2f697066732f00000000600082015250565b60006114fc601c836114bb565b9150611507826114c6565b601c82019050919050565b600061151d82610d2e565b61152781856114bb565b9350611537818560208601610d4a565b80840191505092915050565b600061154e826114ef565b915061155a8284611512565b915081905092915050565b60008190508160005260206000209050919050565b60006020601f8301049050919050565b600082821b905092915050565b6000600883026115c77fffffffffffffffffffffffffffffffffffffffffffffffffffffffffffffffff8261158a565b6115d1868361158a565b95508019841693508086168417925050509392505050565b6000819050919050565b600061160e61160961160484610d15565b6115e9565b610d15565b9050919050565b6000819050919050565b611628836115f3565b61163c61163482611615565b848454611597565b825550505050565b600090565b611651611644565b61165c81848461161f565b505050565b5b8181101561168057611675600082611649565b600181019050611662565b5050565b601f8211156116c55761169681611565565b61169f8461157a565b810160208510156116ae578190505b6116c26116ba8561157a565b830182611661565b50505b505050565b600082821c905092915050565b60006116e8600019846008026116ca565b1980831691505092915050565b600061170183836116d7565b9150826002028217905092915050565b61171a82610d2e565b67ffffffffffffffff81111561173357611732610f83565b5b61173d8254611413565b611748828285611684565b600060209050601f83116001811461177b5760008415611769578287015190505b61177385826116f5565b8655506117db565b601f19841661178986611565565b60005b828110156117b15784890151825560018201915060208501945060208101905061178c565b868310156117ce57848901516117ca601f8916826116d7565b8355505b6001600288020188555050505b50505050505056fea264697066735822122065d96d3315e46c0dd101c5ba3acf7db921c2829419f8e7bf204cb2d1a96fee7b64736f6c63430008110033",
    "linkReferences": {},
    "deployedLinkReferences": {}
}